:020000040800F2
:10000000F006002005010008430E0008490D000815
:10001000410E000895010008B9100008000000001A
:10002000000000000000000000000000470E000873
:100030009701000800000000450E0008490E000866
:100040001F0100081F0100081F0100081F01000810
:100050001F0100081F0100081F0100081F01000800
:100060001F0100081F0100081F0100081F010008F0
:100070001F0100081F0100081F0100081F010008E0
:100080001F0100081F0100081F0100081F010008D0
:100090001F0100081F0100081F0100081F010008C0
:1000A0001F0100081F0100081F0100081F010008B0
:1000B0001F010008AD0E00081F0100081F01000805
:1000C0001F0100081F0100081F0100081F01000890
:1000D0001F0100081F0100081F0100085D10000833
:1000E0001F0100081F0100081F010008DFF810D0E1
:1000F00000F03EF80048004715190008AFF30080F3
:10010000F00600200648804706480047FEE7FEE765
:10011000FEE7FEE7FEE7FEE7FEE7FEE7FEE7FEE7B7
:10012000A90E0008ED00000840EA01039B0703D078
:1001300009E008C9121F08C0042AFAD203E011F826
:10014000013B00F8013B521EF9D27047D2B201E0E8
:1001500000F8012B491EFBD270470022F6E710B5CC
:1001600013460A4604461946FFF7F0FF204610BD25
:10017000064C074D06E0E06840F0010394E80700F4
:1001800098471034AC42F6D3FFF7B4FFB01E000816
:10019000D01E0008FEE770472DE9F84FDFF8A49164
:1001A000002409F1040A0AF1040B23464FF00F085A
:1001B0000BF1040EBEE00127A7403A40BA4272D1CB
:1001C000DFF884C14D68A5EB0C0665452BD00DDC2E
:1001D000032D34D005DC35B3012D19D0022D2FD1DC
:1001E0001BE0112D16D0122D2AD119E0B6F5881F6B
:1001F00019D006DCB6F5803F15D0B6F5801F1FD1AB
:1002000011E0B6F5001F0ED0B6F5041F18D10AE0B4
:10021000CB6815E0CB681B1D12E0CB6808330FE0FC
:10022000CB680C330CE08B682BB1012B4FF008032B
:1002300003D0476104E0042302E0076100E00023EB
:10024000FF2A01D8064601E000F104064FEA8405C2
:1002500001D9A5F12005376808FA05FC27EA0C0743
:1002600003FA05F547EA050737604D68ED0060D5EC
:10027000364DAE6946F00106AE61AD6924F0030665
:1002800005F001050095324D7719BE68A5072D0FC1
:1002900008FA05FC26EA0C06DFF8B8C0604503D171
:1002A0004FF0000C17E044E0DFF8ACC0604502D12D
:1002B0004FF0010C0FE0DFF8A4C0604502D14FF011
:1002C000020C08E0DFF898C0604502D14FF0030C43
:1002D00001E04FF0040C0CFA05FC4CEA060CC7F8E0
:1002E00008C04D68D9F80060ED034D4601D51643AE
:1002F00000E096432E604D68DAF80060AD03554685
:1003000001D5164300E096432E604D68DBF800608F
:10031000ED025D4601D5164300E096432E604D6820
:10032000DEF80060AD02754601D5164300E0964345
:100330002E60641C0A6832FA04F57FF43CAFBDE815
:10034000F88F00000004014000001110001002406E
:100350000000014000080140000C01400010014075
:10036000001401400AB1016170470904FBE7000075
:10037000014880687047000004000020024881683E
:10038000027811448160704704000020074810B5CE
:10039000016841F010010160032000F075F80F20A2
:1003A00000F006F800F024F8002010BD0020024004
:1003B00070B50D4D04464FF47A712878B1FBF0F01A
:1003C0000A490968B1FBF0F000F0FAFA48B9102CBC
:1003D00007D200222146501E00F036F800206C6043
:1003E00070BD012070BD000004000020000000204E
:1003F0000C4808B5816941F001018161816901F012
:1004000001010091C16941F08051C161C069064993
:1004100000F080500090486820F0E06040F00070EC
:10042000486008BD0010024000000140002809DBC0
:1004300000F01F02012191404009800000F1E020FE
:10044000C0F8001170470000F0B40E4B1B68C3F3F6
:100450000223C3F10704042C00D904241D1D072D19
:1004600001D2002300E0DB1E012606FA04F56D1E12
:100470000D409D409E40761E164045EA0601F0BCA8
:1004800000F01BBE0CED00E0064A00F0070110680A
:100490004FF6FF03184040EA01200349084310606B
:1004A000704700000CED00E00000FA052DE9F04770
:1004B0000D46040067D0DFF81881D8F8000000F07E
:1004C0000700A8420CD2D8F8001021F007012943F8
:1004D000C8F80010D8F8000000F00700A84252D178
:1004E00020683C4E810712D5400703D5706840F460
:1004F000E06070602078000703D5706840F46050B9
:1005000070607068A16820F0F00008437060207887
:10051000C00727D06068012810D03168022810D0A9
:10052000890700292FDA716821F003010143716006
:10053000FFF71EFF074641F288390CE03168890356
:10054000EFE78901EDE7FFF713FFC11B494502D92A
:100550000320BDE8F0877068616800F00C00B0EB24
:10056000810FF0D1D8F80010404601F00701A942F0
:100570000BD9016821F0070129430160006800F0F0
:100580000700A84201D00120E3E72078400705D505
:100590007068E16820F4E06008437060207800072C
:1005A00006D57068216920F4605040EAC10070608F
:1005B00000F038F87168084AC1F30311515CC84073
:1005C0000649086006480068FFF7F2FE0020C0E711
:1005D0000020024000100240981C0008000000208B
:1005E000080000200448054900684968044AC1F32E
:1005F0000221515CC84070470000002000100240FA
:10060000A81C00080448054900684968044AC1F369
:10061000C221515CC8407047000000200010024019
:10062000A81C000812A085B00FC88DE80F0014A008
:10063000144B006804905968134801F00C02042A16
:1006400010D0082A0ED1C1F38342C9031DF802005D
:100650000AD5596804AAC1F34041515C0A4A504383
:10066000B0FBF1F005B0704708494843FAE70000D5
:1006700002030405060708090A0B0C0D0E0F1010E3
:10068000010200000010024000127A0000093D0043
:100690002DE9F84F04006FD02078BE4DC00747D039
:1006A0006868C0F38100012807D06868C0F3810042
:1006B000022809D16868C00306D52868800337D5A9
:1006C00060680028E7D033E06068B0F5803F0BD069
:1006D00010B1B0F5A02F11D0286820F48030286028
:1006E000286820F4802002E0286840F480302860E8
:1006F000606888B1FFF73CFE064609E0286840F4D0
:1007000080202860F0E7FFF733FE801B642873D851
:1007100028688003F7D50BE0FFF72AFE064604E0C1
:10072000FFF726FE801B6428F1D828688003F7D4E1
:100730002078DFF8648280074FF0010A4FF000094B
:1007400039D5686810F00C0F07D06868C0F38100D5
:10075000022809D16868C00306D42868800714D528
:100760002069012808D110E02069B0B1C8F800A0C4
:10077000FFF7FEFD064605E007E1FFF7F9FD801BE8
:100780000228C4D828688007F7D52868616920F056
:10079000F80040EAC10028600DE0C8F80090FFF7BB
:1007A000E7FD064604E0FFF7E3FD801B022823D89F
:1007B00028688007F7D4207800072CD57748A169EE
:1007C000D9B1C0F800A0FFF7D3FD064604E0FFF75B
:1007D000CFFD801B02280FD8686A8007F7D57048C4
:1007E0004FF4FA510068B0FBF1F0009000BF0098A0
:1007F000411E0091FAD20EE07CE0C0F80090FFF7B5
:10080000B7FD064604E0FFF7B3FD801B022871D850
:10081000686A8007F7D4207840075BD5E86900272D
:10082000C00008D4E86940F08050E861E869012719
:1008300000F0805000905B480168C90511D4016840
:10084000834641F480710160FFF792FD064604E0A3
:10085000FFF78EFD801B64284CD8DBF80000C00534
:10086000F6D5E06801280AD008B1052813D0286A17
:1008700020F001002862286A20F0040002E0286AC3
:1008800040F001002862E06841F2883B88B1FFF740
:100890006FFD064609E0286A40F004002862EEE792
:1008A000FFF766FD811B59455BD8286A8007F7D59D
:1008B0000BE0FFF75DFD064604E0FFF759FD811BE5
:1008C00059454ED8286A8007F7D41FB1E86920F04F
:1008D0008050E861E069A8B36968C1F38101022929
:1008E00046D00228484606D0C8F86000FFF740FD11
:1008F000044639E035E04746C8F86000FFF738FDA8
:10090000064604E0FFF734FD801B022829D828683A
:100910008001F7D4206AB0F5803F05D16868A168EE
:1009200020F4003008436860D4E90801084369688E
:1009300021F4741108436860C7F860A0FFF718FD40
:10094000044605E023E0FFF713FD001B022808D84A
:1009500028688001F7D51AE0FFF70AFD001B02287E
:1009600002D90320BDE8F88F28688001F4D40EE096
:100970000128F7D06868226A00F48031914204D1DE
:10098000616A00F47010884201D00120EAE700207B
:10099000E8E70000001002400000424280044242AA
:1009A00000000020007000404FF0E021042808699A
:1009B00003D020F004000861704740F00400FAE71B
:1009C00010B5401EB0F1807F01D3012010BD4FF063
:1009D000E02460610F21601700F06FFB0020A06130
:1009E00007202061002010BD70B590F83C20012A3E
:1009F00026D0012580F83C50022280F83D20026874
:100A00005368946823F070060B68334353600D4BB2
:100A100002689A4208D0B2F1804F05D00A4B9A4240
:100A200002D00A4B9A4204D1496824F0800319434A
:100A3000916080F83D50002180F83C10084670BD60
:100A4000022070BD002C014000040040000800405E
:100A500010B5040003D094F83D0010B107E0012068
:100A600010BD002084F83C00204600F01FF8022052
:100A700084F83D00211D206800F028FA012084F848
:100A8000460084F83E0084F83F0084F8400084F873
:100A9000410084F8420084F8430084F8440084F85C
:100AA000450084F83D00002010BD000008B5006836
:100AB0000B49884212D10B48C16941F00201C16162
:100AC000C069002200F00200009001211D20FFF704
:100AD000BBFCBDE808401D20FFF7A8BC08BD000016
:100AE000000400400010024090F83D10012901D0A0
:100AF00001207047022180F83D100168CA6842F069
:100B00000102CA6000680B49884208D0B0F1804FEA
:100B100005D00949884202D00849884204D1816839
:100B200001F00701062903D0016841F001010160CD
:100B300000207047002C01400004004000080040E5
:100B400070B5044690F83C00012817D0012584F8C0
:100B50003C50022084F83D002068826822F0770231
:100B600022F47F4282600868502830D00DDC2028B3
:100B70004DD005DC98B310283BD148E0022070BD71
:100B8000302844D0402834D139E0602828D070285B
:100B900006D0B0F5805F2CD0B0F5005F29D10AE017
:100BA000CB68D1E90121206800F0C6F9206881688E
:100BB00041F0770109E0CB68D1E90121206800F01C
:100BC000BBF92068816841F48041816011E0CA6806
:100BD0004968206800F0C2F95021206807E016E05B
:100BE000CA684968206800F0CAF96021206800F0EE
:100BF000ADF984F83D50002084F83C0070BDCA680F
:100C00004968206800F0AAF940212068EFE72268CF
:100C100001461046EBE770B5040004D094F83D009F
:100C2000002510B106E0012070BD84F83C5020463C
:100C300000F022F8242084F83D002068C16821F4E7
:100C40000051C160204600F0ADF92068016921F42F
:100C5000904101612068416921F02A0141612068C9
:100C6000C16841F40051C1602564202084F83D0032
:100C700084F83E00002070BD30B585B0002400949B
:100C80000194029403942B4D01682B480222032304
:100C9000A94222D1C16941F40031C161C16901F4A5
:100CA00000310491816941F0040181618069234D23
:100CB00000F0040004900420CDE90002694603938B
:100CC0002846FFF769FA0820CDE90004694628465E
:100CD0000294FFF761FA05B030BD194DA942FAD16F
:100CE000C16941F48021C161C16901F4802104918D
:100CF000816941F0080181618069694600F008005E
:100D000004902815CDE900020E4D03932846FFF705
:100D100043FAE814CDE90004694628460294FFF737
:100D20003BFA2720FFF782FB002211462720FFF71E
:100D30008BFBD0E700440040001002400008014057
:100D400000480040000C0140FEE70000134810B5C9
:100D5000816986B041F0080181618069104C00F022
:100D60000800049001200090019003200390694640
:100D70002046FFF711FA0221009169462046FFF74D
:100D80000BFA002201212046FFF7ECFA0022022193
:100D90002046FFF7E7FA06B010BD00000010024041
:100DA000000C014003480021C0F88011C0F88411F4
:100DB000704700000080214204480121C0F88011E2
:100DC000C0F884114FF4FA7000F0A0B900802142FD
:100DD00030B585B000200090019002900390164835
:100DE000816941F020018161816901F02001049154
:100DF000816941F004018161816901F0040104917C
:100E0000816941F00801816180690C4D00F00800A2
:100E10004FF480740490002221462846FFF7A2FA7E
:100E200001210220CDE90210CDE9004169462846A2
:100E3000FFF7B2F905B030BD0010024000080140D4
:100E4000FEE7FEE770477047FFF798BA30B58FB0FE
:100E500028216846FFF781F914210AA8FFF77DF9D8
:100E60000120010400248DE8130004904FF4E010E9
:100E7000CDE90810022507956846FFF709FC08B17F
:100E800072B6FEE70F20CDE90A054FF48060CDE988
:100E90000C4002210AA80E94FFF708FB002801D09D
:100EA00072B6FEE70FB030BD70470000054800681D
:100EB0000169C90705D06FF00101016102480068AE
:100EC00000477047000100203C000020F0B5026898
:100ED000164C174D174E4FF08047A04205D0B84230
:100EE00003D0A84201D0B04203D122F070034A6877
:100EF0001A43A04205D0B84203D0A84201D0B04264
:100F000003D122F44073CA681A434B6922F080026D
:100F10001A4302608A68C2620A688262A04201D1F2
:100F20000969016301214161F0BD0000002C01400D
:100F3000000400400008004010B5846842EA032223
:100F400024F47F440A432243826010BD826822F069
:100F500070020A4342F007018160704710B5046ACD
:100F6000036A23F001030362836923F0F00343EA79
:100F7000021324F00A020A438361026210BD10B515
:100F8000036A23F0100303628469036A24F4704443
:100F900044EA023223F0A00343EA011182610162B4
:100FA00010BD000070B5044600680169E26821F4D4
:100FB000405111430161A168206901436069014307
:100FC0002068C26841F20C639A430A43C2602068F9
:100FD0004169A26921F44071114341611E492068B1
:100FE000884202D1FFF70EFB01E0FFF7FBFA00EBAE
:100FF000C00101EB0011606864228000B1FBF0F3D6
:10100000B3FBF2F36FF018067343B1FBF0F5B1FBDD
:10101000F0F605EB8305322303EB0515B5FBF2F57E
:10102000B6FBF2F605F0F00505EB0615B1FBF0F6A0
:10103000B1FBF0F0B0FBF2F06FF01801484306EBA3
:10104000800003EB0010B0FBF2F0216800F00F000D
:101050002844886070BD00000038014010B5124C73
:1010600020680168890605D56FF0200101600F48EE
:101070000068804720680168090605D56FF0800187
:1010800001600B48006880472068016849060AD55E
:101090006FF040010160BDE8104000224FF4807104
:1010A0000448FFF75FB910BD8C0100203400002018
:1010B0003800002000080140FEE70907090E00285B
:1010C00004DB00F1E02080F80014704700F00F000E
:1010D00000F1E02080F8141D704702E008C8121FDC
:1010E00008C1002AFAD170477047002001E001C111
:1010F000121F002AFBD1704710B504460420FFF7E9
:1011000053FC0148046010BD1000002070B5054676
:1011100000244FF47A7603E0304600F005F8641CB2
:10112000AC42F9D370BD000070B54FF0E02500214E
:101130006C69094AAB6912685043AA699A42FCD0AB
:1011400002D2A3EB020302E0A4EB020633441944EB
:1011500013468142F1D370BD1000002070B5064DDA
:1011600000242878012802D00624204670BD286972
:10117000804700202870F8E71400002070B50C4666
:101180000988002605292FD1417840F2CF750A023F
:1011900081781143C278491C1302027989B21A433B
:1011A000531EAB4220D200232380012500F8015BAF
:1011B00023885B1C2380530703D005EBD203DDB2E9
:1011C00001E0C2F3C70500F8015B23885B1C2380A4
:1011D000002300F0C9FA18B100F0BEFB064604E097
:1011E00020882844208000E00326304670BD70B57A
:1011F0000C460988002605292FD1417840F2CF7589
:101200000A0281781143C278491C1302027989B21B
:101210001A43531EAB4220D200232380022300F83E
:10122000013B23885B1C2380530704D0012303EB7D
:10123000D203DDB201E0C2F3C70500F8015B2388E9
:101240005B1C238000F0DEFA18B100F085FB064637
:1012500004E020882844208000E00326304670BD4A
:1012600070B50C4609880026052925D141780579F5
:101270000A0281781143491C6A1E89B27C2A1BD854
:1012800000222280032200F8012B22880023521C16
:1012900022806A0000F8012B2288521C22802A46F4
:1012A00000F0EAFA18B100F057FB064605E0208886
:1012B00000EB4500208000E00326304670BD70B58D
:1012C0000C4609880026052927D1417882780579BE
:1012D00042EA0122521C91B2C27845EA02256A1EF6
:1012E0007C2A1AD200222280042200F8012B2288B4
:1012F000521C22806A0000F8012B2288521C228096
:101300002A4600F0E9FA18B100F026FB064605E08F
:10131000208800EB4500208000E00326304670BDA9
:101320002DE9F0410446088800270D460A2842D3DB
:10133000607826790102A078227A0843401C1FFABF
:1013400080F8E07846EA00266079731E0102A079F1
:101350000843401C81B2E0797C2B42EA0022607A8B
:1013600028D83AB3792A25D8B0EB420F22D10123ED
:1013700004F10A0000F080FA98B9002129801721B1
:1013800021702988601C491C2980710000F8011B0C
:1013900029880023491C29803246414600F06CFA16
:1013A00018B100F0D9FA074605E0288800EB46009E
:1013B000288000E003273846BDE8F08170B5064C70
:1013C0000D4606492288401CFEF7AEFE2088401CD0
:1013D0002880002070BD0000C0000020D001002047
:1013E00038B50988002405290BD141780A02817893
:1013F0001143491C027989B21AB9C278FF2A03D075
:1014000012B10324204638BD00228DF80120C07897
:10141000FF280CD08DF8002001231A46684600F002
:10142000A3F90028EED000F097FA0446EAE701207D
:101430008DF80000F0E710B509880024052902D0D6
:101440000324204610BD417801230A028178C01C84
:101450001143491C89B21A4600F00EFA0028F0D058
:1014600000F07AFA0446ECE72DE9F0410D460988D0
:101470000024052926D941788278437942EA01225D
:10148000521C96B2C178027942EA0122510704D077
:10149000012101EBD201C9B201E0C2F3C701571E1D
:1014A000B7F5F66F0ED299420CD101233146801D5B
:1014B00000F05AF918B100F04FFA044603E0052095
:1014C000288000E003242046BDE8F08170B50D4679
:1014D0000988002406291DD341780A028178114326
:1014E000C278491C1302027989B21A434379561E05
:1014F000772E0FD85606360E9E420BD10123801D43
:1015000000F0BAF918B100F027FA044603E005200C
:10151000288000E00324204670BD00002DE9F04142
:101520001C46069B1746064629B1F72903D8134DDA
:10153000084629710EB102241BE0114929611149A5
:1015400069611149E9601149A9610021E961104906
:101550002962104969621049A9622246394600F0A1
:1015600077F8040005D100F069FA28B16E71012006
:1015700028702046BDE8F0810324FAE7140000201B
:101580003917000855170008DD1600088D160008E9
:10159000411B0008E91B0008A91B000838B52B4CAB
:1015A000207808B1062038BD684600F039FA0128D5
:1015B00049D19DF80000E8B3012802D0022842D1A9
:1015C0000FE0224AA369921D911CC81F984788BB4F
:1015D00060782179884200D060BB022000F036FAA2
:1015E00031E0A0680121194B0578A570E170002158
:1015F0002C3313F8312062B1AA4207D103EBC101A9
:101600004A681249891D9047E07002E0491C102980
:10161000EFDB607870B1E27882B10020E080A078E2
:1016200040F08001A0680170E188491C89B2E18026
:10163000425400E007E0E088401CE080D4E9021357
:10164000E28820799847002038BD0000140000206F
:1016500070B51546084600240822294600F006FA0F
:1016600001280DD1B5F5964F01D9232003E0064995
:101670006800B1FBF0F080B200F026FA012800D03B
:101680000324204670BD0000A07F17002DE9F04123
:10169000104D07461646A88888460024FF2801D921
:1016A000AFF30080A888042804D3A9880A4800F072
:1016B0005FF918B105242046BDE8F081064800789E
:1016C0003870A888C01E30800348401CC8F800004D
:1016D000F1E70000C4000020F001002070B5144CB8
:1016E000034600256078012802D00525284670BDF4
:1016F000491E0126A160084666800B70618811446E
:101700006180618800F034F901466088094A131845
:10171000401C608019706088090A0244401C608087
:10172000117026700121002000F038F9DEE700007A
:10173000C4000020F0010020054910B500204870C9
:101740000146012000F02AF9BDE8104000F05CB924
:10175000C400002010B50021084600F01FF9BDE8C4
:10176000104000F03FB900002DE9F0470446012089
:10177000234F00EBD206B81F491E858888B2811816
:101780004FF00009402936D8401BC0F3CC0500F0CB
:10179000070A02F007086BB1012B2ED120E078195F
:1017A0006D1CADB20822514600F04CFA761E04F8CA
:1017B000010BB6B2002EF2D114F8011DC8F10800D9
:1017C0008140C9B2C140217017E078196D1C14F82E
:1017D000013BADB20822514600F045FA761EB6B282
:1017E000012EF2D85FEA080207D023787819514613
:1017F00000F039FA01E04FF001094846BDE8F087F2
:10180000D60000202DE9F047044617460120DFF8F6
:10181000648000EBD705A8F10200491E028888B257
:10182000C1194FF0000910291ED8801AC0F3CC0648
:1018300000F0070A0BE008EB0600761CB6B208229F
:10184000514600F0FFF96D1E04F8010BADB2002DFA
:10185000F1D107F0070014F8011DC0F10800814024
:10186000C9B2C140217001E04FF001094846BDE80E
:10187000F0870000D200002070B5491E89B2002414
:101880008D18082D23D8134D73B1012B20D11BE0E7
:1018900035F81130521E1B0A00F8013B15F81130C3
:1018A00000F8013B92B2491C002AF1D110E010F877
:1018B000013B521E1B0225F8113010F8016B92B249
:1018C000334325F81130491C002AF0D100E00124EF
:1018D000204670BDDE00002030B5491E89B20024CC
:1018E0008B18082B10D80A4B0BE033F81150521EFE
:1018F0002D0A00F8015B13F8115000F8015B92B259
:10190000491C002AF1D100E00124204630BD00002E
:10191000EE00002008B5FEF739FDFFF797FA4820E2
:10192000FFF7EAFBFFF712FAFFF746FAFFF750FA64
:1019300000204FF41653024601210090FFF7EEFD00
:10194000FFF70CFC4FF4FA74FFF72CFAFFF726FEB2
:101950002046FFF7DBFBF7E7002804D0012803D07F
:10196000072803D0042070470220704706207047E4
:1019700070B5094DFF231A4605F5807605E010F88D
:10198000014B54402A5D5A40335D491E89B2F6D25C
:1019900042EA032070BD0000B01C00080F4B002875
:1019A0001A68D06802D040F0200001E020F020004A
:1019B000D06018680029C16807D041F08001C1607B
:1019C000012211020648FEF7CDBC21F08001C16062
:1019D0001868C16841F04001C16070478C01002067
:1019E0000008014007480068016A41F211121142E3
:1019F00007D1016A9210114203D1016821F001015F
:101A00000160704700010020044800210268516213
:101A10000068016841F00101016070470001002089
:101A20000549024600204B78002B04D0087810703E
:101A30000020487001207047FE000020024900206D
:101A40004870012070470000FE000020024901227A
:101A50004A70087010467047FE000020024909686D
:101A6000017001207047000004480040124810B582
:101A7000104AC0E9002100210C22C160C0E9052103
:101A80004FF48052C161012B09D0022B0AD00161B1
:101A900081600948FFF7BFF848B1002010BD4FF43E
:101AA000C06101E04FF4806182600161F1E70120D3
:101AB00010BD0000004800408C0100200149086072
:101AC000012070470448004030B587B000241B4D0A
:101AD0000094019402940394049417490594296096
:101AE00040F60F61401E6960C5E902402C6128463E
:101AF000AC61FEF7ADFF70B94FF4805000906946BD
:101B00002846FFF71DF830B9049404A92846059427
:101B1000FEF76AFF10B1002007B030BD29686FF0F2
:101B2000010008612868C16841F00101C1600348F3
:101B3000FEF7DAFF0120EFE700040040000100207B
:101B400038B5174C0025207808B1AFF300806846FF
:101B5000FFF784FF617831B1124A012907D00229C9
:101B600010D0032901D1FFF74FFF284638BD0020D0
:101B7000A0809DF80000A1880A44491CA180107033
:101B800002200BE0A088FF2807D89DF80010A0884D
:101B90000244401CA0801170E5E703206070E2E77A
:101BA000C4000020F001002070B50E4D00246878BC
:101BB00070B102280BD003280DD0687858B168782E
:101BC000022808D06878032805D0AFF300800120F0
:101BD000FFF73CFF0446FFF705FF01206870204631
:101BE00070BD0000C400002070B5154C0025607861
:101BF000012801D0AFF30080217811B101291CD157
:101C000004E000210120FFF7C9FE16E0608850B112
:101C1000A0680078FFF752FFA068401CA0606088B1
:101C2000401E608009E00320FFF710FF05460021F9
:101C30000120FFF7B3FE00202070284670BD000091
:101C4000C400002010B5CB085C4201EBC4040121A4
:101C50009140C25C1844407842EA0020E040491EAE
:101C60000840C0B210BD70B5082A01D9AFF300809A
:101C7000CC08654201EBC5018B40012595406D1EE6
:101C80008D400219015D567841EA0621A9431943A6
:101C90000155080A507070BD0000000000000000EF
:101CA0000102030406070809000000000102030402
:101CB00000C1814001C0804101C0804100C181401C
:101CC00001C0804100C1814000C1814001C080410C
:101CD00001C0804100C1814000C1814001C08041FC
:101CE00000C1814001C0804101C0804100C18140EC
:101CF00001C0804100C1814000C1814001C08041DC
:101D000000C1814001C0804101C0804100C18140CB
:101D100000C1814001C0804101C0804100C18140BB
:101D200001C0804100C1814000C1814001C08041AB
:101D300001C0804100C1814000C1814001C080419B
:101D400000C1814001C0804101C0804100C181408B
:101D500000C1814001C0804101C0804100C181407B
:101D600001C0804100C1814000C1814001C080416B
:101D700000C1814001C0804101C0804100C181405B
:101D800001C0804100C1814000C1814001C080414B
:101D900001C0804100C1814000C1814001C080413B
:101DA00000C1814001C0804101C0804100C181402B
:101DB00000C0C101C30302C2C60607C705C5C404EB
:101DC000CC0C0DCD0FCFCE0E0ACACB0BC90908C85B
:101DD000D81819D91BDBDA1A1EDEDF1FDD1D1CDC4B
:101DE00014D4D515D71716D6D21213D311D1D010BB
:101DF000F03031F133F3F23236F6F737F53534F4AB
:101E00003CFCFD3DFF3F3EFEFA3A3BFB39F9F8381A
:101E100028E8E929EB2B2AEAEE2E2FEF2DEDEC2C0A
:101E2000E42425E527E7E62622E2E323E12120E07A
:101E3000A06061A163A3A26266A6A767A56564A46A
:101E40006CACAD6DAF6F6EAEAA6A6BAB69A9A868DA
:101E500078B8B979BB7B7ABABE7E7FBF7DBDBC7CCA
:101E6000B47475B577B7B67672B2B373B17170B03A
:101E7000509091519353529296565797559594542A
:101E80009C5C5D9D5F9F9E5E5A9A9B5B995958989A
:101E9000884849894B8B8A4A4E8E8F4F8D4D4C8C8A
:101EA00044848545874746868242438341818040FA
:101EB000D01E00080000002000010000DA10000819
:101EC000D01F000800010020F0050000EA10000803
:101ED0000024F400010000001000000000000000D9
:101EE00000000000020000000000000000000000F0
:101EF00000000000000000000000000000000000E2
:101F000000000000000000000000000000000000D1
:101F100011000000BD13000804000000BF120008FB
:101F2000030000006112000810000000CD1400083A
:101F300006000000371400081700000021130008F5
:101F4000010000007D11000805000000E1130008F9
:101F50000F0000006914000802000000EF110008E3
:101F60000000000000000000000000000000000071
:101F70000000000000000000000000000000000061
:101F80000000000000000000000000000000000051
:101F90000000000000000000000000000000000041
:101FA00000006688000033210000000000001000DF
:101FB0001111222233334444555566667777000069
:101FC0000130022003300440055006600770000015
:04000005080000ED02
:00000001FF
